{
  "contractName": "MyERC1155",
  "abi": [
    {
      "inputs": [
        {
          "internalType": "string",
          "name": "uri_",
          "type": "string"
        }
      ],
      "stateMutability": "nonpayable",
      "type": "constructor"
    },
    {
      "anonymous": false,
      "inputs": [
        {
          "indexed": true,
          "internalType": "address",
          "name": "account",
          "type": "address"
        },
        {
          "indexed": true,
          "internalType": "address",
          "name": "operator",
          "type": "address"
        },
        {
          "indexed": false,
          "internalType": "bool",
          "name": "approved",
          "type": "bool"
        }
      ],
      "name": "ApprovalForAll",
      "type": "event"
    },
    {
      "anonymous": false,
      "inputs": [
        {
          "indexed": true,
          "internalType": "address",
          "name": "operator",
          "type": "address"
        },
        {
          "indexed": true,
          "internalType": "address",
          "name": "from",
          "type": "address"
        },
        {
          "indexed": true,
          "internalType": "address",
          "name": "to",
          "type": "address"
        },
        {
          "indexed": false,
          "internalType": "uint256[]",
          "name": "ids",
          "type": "uint256[]"
        },
        {
          "indexed": false,
          "internalType": "uint256[]",
          "name": "values",
          "type": "uint256[]"
        }
      ],
      "name": "TransferBatch",
      "type": "event"
    },
    {
      "anonymous": false,
      "inputs": [
        {
          "indexed": true,
          "internalType": "address",
          "name": "operator",
          "type": "address"
        },
        {
          "indexed": true,
          "internalType": "address",
          "name": "from",
          "type": "address"
        },
        {
          "indexed": true,
          "internalType": "address",
          "name": "to",
          "type": "address"
        },
        {
          "indexed": false,
          "internalType": "uint256",
          "name": "id",
          "type": "uint256"
        },
        {
          "indexed": false,
          "internalType": "uint256",
          "name": "value",
          "type": "uint256"
        }
      ],
      "name": "TransferSingle",
      "type": "event"
    },
    {
      "anonymous": false,
      "inputs": [
        {
          "indexed": false,
          "internalType": "string",
          "name": "value",
          "type": "string"
        },
        {
          "indexed": true,
          "internalType": "uint256",
          "name": "id",
          "type": "uint256"
        }
      ],
      "name": "URI",
      "type": "event"
    },
    {
      "inputs": [
        {
          "internalType": "address",
          "name": "account",
          "type": "address"
        },
        {
          "internalType": "uint256",
          "name": "id",
          "type": "uint256"
        }
      ],
      "name": "balanceOf",
      "outputs": [
        {
          "internalType": "uint256",
          "name": "",
          "type": "uint256"
        }
      ],
      "stateMutability": "view",
      "type": "function"
    },
    {
      "inputs": [
        {
          "internalType": "address[]",
          "name": "accounts",
          "type": "address[]"
        },
        {
          "internalType": "uint256[]",
          "name": "ids",
          "type": "uint256[]"
        }
      ],
      "name": "balanceOfBatch",
      "outputs": [
        {
          "internalType": "uint256[]",
          "name": "",
          "type": "uint256[]"
        }
      ],
      "stateMutability": "view",
      "type": "function"
    },
    {
      "inputs": [
        {
          "internalType": "address",
          "name": "account",
          "type": "address"
        },
        {
          "internalType": "address",
          "name": "operator",
          "type": "address"
        }
      ],
      "name": "isApprovedForAll",
      "outputs": [
        {
          "internalType": "bool",
          "name": "",
          "type": "bool"
        }
      ],
      "stateMutability": "view",
      "type": "function"
    },
    {
      "inputs": [
        {
          "internalType": "address",
          "name": "from",
          "type": "address"
        },
        {
          "internalType": "address",
          "name": "to",
          "type": "address"
        },
        {
          "internalType": "uint256[]",
          "name": "ids",
          "type": "uint256[]"
        },
        {
          "internalType": "uint256[]",
          "name": "amounts",
          "type": "uint256[]"
        },
        {
          "internalType": "bytes",
          "name": "data",
          "type": "bytes"
        }
      ],
      "name": "safeBatchTransferFrom",
      "outputs": [],
      "stateMutability": "nonpayable",
      "type": "function"
    },
    {
      "inputs": [
        {
          "internalType": "address",
          "name": "operator",
          "type": "address"
        },
        {
          "internalType": "bool",
          "name": "approved",
          "type": "bool"
        }
      ],
      "name": "setApprovalForAll",
      "outputs": [],
      "stateMutability": "nonpayable",
      "type": "function"
    },
    {
      "inputs": [
        {
          "internalType": "bytes4",
          "name": "interfaceId",
          "type": "bytes4"
        }
      ],
      "name": "supportsInterface",
      "outputs": [
        {
          "internalType": "bool",
          "name": "",
          "type": "bool"
        }
      ],
      "stateMutability": "view",
      "type": "function"
    },
    {
      "inputs": [
        {
          "internalType": "uint256",
          "name": "",
          "type": "uint256"
        }
      ],
      "name": "uri",
      "outputs": [
        {
          "internalType": "string",
          "name": "",
          "type": "string"
        }
      ],
      "stateMutability": "view",
      "type": "function"
    },
    {
      "inputs": [
        {
          "internalType": "address",
          "name": "account",
          "type": "address"
        },
        {
          "internalType": "string",
          "name": "name",
          "type": "string"
        },
        {
          "internalType": "string",
          "name": "category",
          "type": "string"
        },
        {
          "internalType": "uint256",
          "name": "amount",
          "type": "uint256"
        },
        {
          "internalType": "uint256",
          "name": "price",
          "type": "uint256"
        },
        {
          "internalType": "string",
          "name": "uri",
          "type": "string"
        }
      ],
      "name": "mint",
      "outputs": [
        {
          "internalType": "uint256",
          "name": "",
          "type": "uint256"
        }
      ],
      "stateMutability": "nonpayable",
      "type": "function"
    },
    {
      "inputs": [
        {
          "internalType": "address payable",
          "name": "owner",
          "type": "address"
        },
        {
          "internalType": "uint256",
          "name": "id",
          "type": "uint256"
        }
      ],
      "name": "buy_nft",
      "outputs": [],
      "stateMutability": "payable",
      "type": "function"
    },
    {
      "inputs": [
        {
          "internalType": "address",
          "name": "from",
          "type": "address"
        },
        {
          "internalType": "address",
          "name": "to",
          "type": "address"
        },
        {
          "internalType": "uint256",
          "name": "id",
          "type": "uint256"
        },
        {
          "internalType": "uint256",
          "name": "amount",
          "type": "uint256"
        },
        {
          "internalType": "bytes",
          "name": "data",
          "type": "bytes"
        }
      ],
      "name": "safeTransferFrom",
      "outputs": [],
      "stateMutability": "nonpayable",
      "type": "function"
    },
    {
      "inputs": [
        {
          "internalType": "uint256",
          "name": "id",
          "type": "uint256"
        }
      ],
      "name": "metadataOf",
      "outputs": [
        {
          "internalType": "string",
          "name": "name",
          "type": "string"
        },
        {
          "internalType": "string",
          "name": "category",
          "type": "string"
        },
        {
          "internalType": "uint256",
          "name": "amount",
          "type": "uint256"
        },
        {
          "internalType": "uint256",
          "name": "price",
          "type": "uint256"
        },
        {
          "internalType": "string",
          "name": "uri",
          "type": "string"
        },
        {
          "internalType": "address",
          "name": "creator",
          "type": "address"
        },
        {
          "internalType": "address",
          "name": "owner",
          "type": "address"
        }
      ],
      "stateMutability": "view",
      "type": "function"
    },
    {
      "inputs": [],
      "name": "showSender",
      "outputs": [
        {
          "internalType": "address",
          "name": "",
          "type": "address"
        }
      ],
      "stateMutability": "view",
      "type": "function"
    },
    {
      "inputs": [],
      "name": "totalTokens",
      "outputs": [
        {
          "internalType": "uint256",
          "name": "",
          "type": "uint256"
        }
      ],
      "stateMutability": "view",
      "type": "function"
    }
  ],
  "bytecode": "0x608060405260006003553480156200001657600080fd5b5060405162003d1338038062003d1383398181016040528101906200003c919062000194565b806200004e816200005660201b60201c565b50506200030a565b80600290805190602001906200006e92919062000072565b5050565b828054620000809062000276565b90600052602060002090601f016020900481019282620000a45760008555620000f0565b82601f10620000bf57805160ff1916838001178555620000f0565b82800160010185558215620000f0579182015b82811115620000ef578251825591602001919060010190620000d2565b5b509050620000ff919062000103565b5090565b5b808211156200011e57600081600090555060010162000104565b5090565b60006200013962000133846200020d565b620001d9565b9050828152602081018484840111156200015257600080fd5b6200015f84828562000240565b509392505050565b600082601f8301126200017957600080fd5b81516200018b84826020860162000122565b91505092915050565b600060208284031215620001a757600080fd5b600082015167ffffffffffffffff811115620001c257600080fd5b620001d08482850162000167565b91505092915050565b6000604051905081810181811067ffffffffffffffff82111715620002035762000202620002db565b5b8060405250919050565b600067ffffffffffffffff8211156200022b576200022a620002db565b5b601f19601f8301169050602081019050919050565b60005b838110156200026057808201518184015260208101905062000243565b8381111562000270576000848401525b50505050565b600060028204905060018216806200028f57607f821691505b60208210811415620002a657620002a5620002ac565b5b50919050565b7f4e487b7100000000000000000000000000000000000000000000000000000000600052602260045260246000fd5b7f4e487b7100000000000000000000000000000000000000000000000000000000600052604160045260246000fd5b6139f9806200031a6000396000f3fe6080604052600436106100c15760003560e01c80634e1273f41161007f578063a22cb46511610059578063a22cb465146102aa578063a4d64ff4146102d3578063e985e9c5146102fe578063f242432a1461033b576100c1565b80634e1273f4146102265780637e1c0c0914610263578063a0376e591461028e576100c1565b8062fdd58e146100c657806301ffc9a7146101035780630e89341c146101405780630ef7cc8e1461017d57806326debcf3146101c05780632eb2c2d6146101fd575b600080fd5b3480156100d257600080fd5b506100ed60048036038101906100e89190612794565b610364565b6040516100fa919061343c565b60405180910390f35b34801561010f57600080fd5b5061012a6004803603810190610125919061283c565b61042d565b604051610137919061319b565b60405180910390f35b34801561014c57600080fd5b506101676004803603810190610162919061288e565b61050f565b60405161017491906131b6565b60405180910390f35b34801561018957600080fd5b506101a4600480360381019061019f919061288e565b6105a3565b6040516101b797969594939291906131d8565b60405180910390f35b3480156101cc57600080fd5b506101e760048036038101906101e291906126c3565b610883565b6040516101f4919061343c565b60405180910390f35b34801561020957600080fd5b50610224600480360381019061021f9190612539565b610b6c565b005b34801561023257600080fd5b5061024d600480360381019061024891906127d0565b610f62565b60405161025a9190613142565b60405180910390f35b34801561026f57600080fd5b50610278611113565b604051610285919061343c565b60405180910390f35b6102a860048036038101906102a391906124c1565b61111d565b005b3480156102b657600080fd5b506102d160048036038101906102cc9190612687565b61156e565b005b3480156102df57600080fd5b506102e86116ef565b6040516102f5919061300d565b60405180910390f35b34801561030a57600080fd5b50610325600480360381019061032091906124fd565b6116f7565b604051610332919061319b565b60405180910390f35b34801561034757600080fd5b50610362600480360381019061035d91906125f8565b61178b565b005b60008073ffffffffffffffffffffffffffffffffffffffff168373ffffffffffffffffffffffffffffffffffffffff1614156103d5576040517f08c379a00000000000000000000000000000000000000000000000000000000081526004016103cc9061329c565b60405180910390fd5b60008083815260200190815260200160002060008473ffffffffffffffffffffffffffffffffffffffff1673ffffffffffffffffffffffffffffffffffffffff16815260200190815260200160002054905092915050565b60007fd9b67a26000000000000000000000000000000000000000000000000000000007bffffffffffffffffffffffffffffffffffffffffffffffffffffffff1916827bffffffffffffffffffffffffffffffffffffffffffffffffffffffff191614806104f857507f0e89341c000000000000000000000000000000000000000000000000000000007bffffffffffffffffffffffffffffffffffffffffffffffffffffffff1916827bffffffffffffffffffffffffffffffffffffffffffffffffffffffff1916145b806105085750610507826117f6565b5b9050919050565b60606002805461051e90613774565b80601f016020809104026020016040519081016040528092919081815260200182805461054a90613774565b80156105975780601f1061056c57610100808354040283529160200191610597565b820191906000526020600020905b81548152906001019060200180831161057a57829003601f168201915b50505050509050919050565b60608060008060606000806000600460008a81526020019081526020016000206040518060e00160405290816000820180546105de90613774565b80601f016020809104026020016040519081016040528092919081815260200182805461060a90613774565b80156106575780601f1061062c57610100808354040283529160200191610657565b820191906000526020600020905b81548152906001019060200180831161063a57829003601f168201915b5050505050815260200160018201805461067090613774565b80601f016020809104026020016040519081016040528092919081815260200182805461069c90613774565b80156106e95780601f106106be576101008083540402835291602001916106e9565b820191906000526020600020905b8154815290600101906020018083116106cc57829003601f168201915b5050505050815260200160028201805461070290613774565b80601f016020809104026020016040519081016040528092919081815260200182805461072e90613774565b801561077b5780601f106107505761010080835404028352916020019161077b565b820191906000526020600020905b81548152906001019060200180831161075e57829003601f168201915b5050505050815260200160038201548152602001600482015481526020016005820160009054906101000a900473ffffffffffffffffffffffffffffffffffffffff1673ffffffffffffffffffffffffffffffffffffffff1673ffffffffffffffffffffffffffffffffffffffff1681526020016006820160009054906101000a900473ffffffffffffffffffffffffffffffffffffffff1673ffffffffffffffffffffffffffffffffffffffff1673ffffffffffffffffffffffffffffffffffffffff16815250509050806000015181602001518260600151836080015184604001518560a001518660c00151975097509750975097509750975050919395979092949650565b600061088e86611860565b156108ce576040517f08c379a00000000000000000000000000000000000000000000000000000000081526004016108c59061337c565b60405180910390fd5b6001600360008282546108e191906135da565b92505081905550610991600460006003548152602001908152602001600020600001805461090e90613774565b80601f016020809104026020016040519081016040528092919081815260200182805461093a90613774565b80156109875780601f1061095c57610100808354040283529160200191610987565b820191906000526020600020905b81548152906001019060200180831161096a57829003601f168201915b5050505050611860565b6109d0576040517f08c379a00000000000000000000000000000000000000000000000000000000081526004016109c79061335c565b60405180910390fd5b6040518060e001604052808781526020018681526020018381526020018581526020018481526020018873ffffffffffffffffffffffffffffffffffffffff1681526020018873ffffffffffffffffffffffffffffffffffffffff168152506004600060035481526020019081526020016000206000820151816000019080519060200190610a609291906121a4565b506020820151816001019080519060200190610a7d9291906121a4565b506040820151816002019080519060200190610a9a9291906121a4565b50606082015181600301556080820151816004015560a08201518160050160006101000a81548173ffffffffffffffffffffffffffffffffffffffff021916908373ffffffffffffffffffffffffffffffffffffffff16021790555060c08201518160060160006101000a81548173ffffffffffffffffffffffffffffffffffffffff021916908373ffffffffffffffffffffffffffffffffffffffff160217905550905050610b5d87600354866040518060200160405280600081525061186d565b60035490509695505050505050565b8151835114610bb0576040517f08c379a0000000000000000000000000000000000000000000000000000000008152600401610ba7906133dc565b60405180910390fd5b600073ffffffffffffffffffffffffffffffffffffffff168473ffffffffffffffffffffffffffffffffffffffff161415610c20576040517f08c379a0000000000000000000000000000000000000000000000000000000008152600401610c17906132fc565b60405180910390fd5b610c28611a03565b73ffffffffffffffffffffffffffffffffffffffff168573ffffffffffffffffffffffffffffffffffffffff161480610c6e5750610c6d85610c68611a03565b6116f7565b5b610cad576040517f08c379a0000000000000000000000000000000000000000000000000000000008152600401610ca49061331c565b60405180910390fd5b6000610cb7611a03565b9050610cc7818787878787611a0b565b60005b8451811015610ecd576000858281518110610d0e577f4e487b7100000000000000000000000000000000000000000000000000000000600052603260045260246000fd5b602002602001015190506000858381518110610d53577f4e487b7100000000000000000000000000000000000000000000000000000000600052603260045260246000fd5b60200260200101519050600080600084815260200190815260200160002060008b73ffffffffffffffffffffffffffffffffffffffff1673ffffffffffffffffffffffffffffffffffffffff16815260200190815260200160002054905081811015610df4576040517f08c379a0000000000000000000000000000000000000000000000000000000008152600401610deb9061333c565b60405180910390fd5b8181610e009190613630565b60008085815260200190815260200160002060008c73ffffffffffffffffffffffffffffffffffffffff1673ffffffffffffffffffffffffffffffffffffffff168152602001908152602001600020819055508160008085815260200190815260200160002060008b73ffffffffffffffffffffffffffffffffffffffff1673ffffffffffffffffffffffffffffffffffffffff1681526020019081526020016000206000828254610eb291906135da565b9250508190555050505080610ec6906137a6565b9050610cca565b508473ffffffffffffffffffffffffffffffffffffffff168673ffffffffffffffffffffffffffffffffffffffff168273ffffffffffffffffffffffffffffffffffffffff167f4a39dc06d4c0dbc64b70af90fd698a233a518aa5d07e595d983b8c0526c8f7fb8787604051610f44929190613164565b60405180910390a4610f5a818787878787611a13565b505050505050565b60608151835114610fa8576040517f08c379a0000000000000000000000000000000000000000000000000000000008152600401610f9f906133bc565b60405180910390fd5b6000835167ffffffffffffffff811115610feb577f4e487b7100000000000000000000000000000000000000000000000000000000600052604160045260246000fd5b6040519080825280602002602001820160405280156110195781602001602082028036833780820191505090505b50905060005b8451811015611108576110b2858281518110611064577f4e487b7100000000000000000000000000000000000000000000000000000000600052603260045260246000fd5b60200260200101518583815181106110a5577f4e487b7100000000000000000000000000000000000000000000000000000000600052603260045260246000fd5b6020026020010151610364565b8282815181106110eb577f4e487b7100000000000000000000000000000000000000000000000000000000600052603260045260246000fd5b60200260200101818152505080611101906137a6565b905061101f565b508091505092915050565b6000600354905090565b6000600460008381526020019081526020016000206040518060e001604052908160008201805461114d90613774565b80601f016020809104026020016040519081016040528092919081815260200182805461117990613774565b80156111c65780601f1061119b576101008083540402835291602001916111c6565b820191906000526020600020905b8154815290600101906020018083116111a957829003601f168201915b505050505081526020016001820180546111df90613774565b80601f016020809104026020016040519081016040528092919081815260200182805461120b90613774565b80156112585780601f1061122d57610100808354040283529160200191611258565b820191906000526020600020905b81548152906001019060200180831161123b57829003601f168201915b5050505050815260200160028201805461127190613774565b80601f016020809104026020016040519081016040528092919081815260200182805461129d90613774565b80156112ea5780601f106112bf576101008083540402835291602001916112ea565b820191906000526020600020905b8154815290600101906020018083116112cd57829003601f168201915b5050505050815260200160038201548152602001600482015481526020016005820160009054906101000a900473ffffffffffffffffffffffffffffffffffffffff1673ffffffffffffffffffffffffffffffffffffffff1673ffffffffffffffffffffffffffffffffffffffff1681526020016006820160009054906101000a900473ffffffffffffffffffffffffffffffffffffffff1673ffffffffffffffffffffffffffffffffffffffff1673ffffffffffffffffffffffffffffffffffffffff168152505090506113c28160000151611860565b15611402576040517f08c379a00000000000000000000000000000000000000000000000000000000081526004016113f9906132bc565b60405180910390fd5b8060800151341015611449576040517f08c379a00000000000000000000000000000000000000000000000000000000081526004016114409061341c565b60405180910390fd5b3073ffffffffffffffffffffffffffffffffffffffff1663f242432a84338560016040518563ffffffff1660e01b81526004016114899493929190613028565b600060405180830381600087803b1580156114a357600080fd5b505af11580156114b7573d6000803e3d6000fd5b505050508273ffffffffffffffffffffffffffffffffffffffff166108fc82608001519081150290604051600060405180830381858888f19350505050158015611505573d6000803e3d6000fd5b508060800151341115611569573373ffffffffffffffffffffffffffffffffffffffff166108fc82608001513461153c9190613630565b9081150290604051600060405180830381858888f19350505050158015611567573d6000803e3d6000fd5b505b505050565b8173ffffffffffffffffffffffffffffffffffffffff1661158d611a03565b73ffffffffffffffffffffffffffffffffffffffff1614156115e4576040517f08c379a00000000000000000000000000000000000000000000000000000000081526004016115db9061339c565b60405180910390fd5b80600160006115f1611a03565b73ffffffffffffffffffffffffffffffffffffffff1673ffffffffffffffffffffffffffffffffffffffff16815260200190815260200160002060008473ffffffffffffffffffffffffffffffffffffffff1673ffffffffffffffffffffffffffffffffffffffff16815260200190815260200160002060006101000a81548160ff0219169083151502179055508173ffffffffffffffffffffffffffffffffffffffff1661169e611a03565b73ffffffffffffffffffffffffffffffffffffffff167f17307eab39ab6107e8899845ad3d59bd9653f200f220920489ca2b5937696c31836040516116e3919061319b565b60405180910390a35050565b600033905090565b6000600160008473ffffffffffffffffffffffffffffffffffffffff1673ffffffffffffffffffffffffffffffffffffffff16815260200190815260200160002060008373ffffffffffffffffffffffffffffffffffffffff1673ffffffffffffffffffffffffffffffffffffffff16815260200190815260200160002060009054906101000a900460ff16905092915050565b6117988585858585611be3565b8360046000600354815260200190815260200160002060060160006101000a81548173ffffffffffffffffffffffffffffffffffffffff021916908373ffffffffffffffffffffffffffffffffffffffff1602179055505050505050565b60007f01ffc9a7000000000000000000000000000000000000000000000000000000007bffffffffffffffffffffffffffffffffffffffffffffffffffffffff1916827bffffffffffffffffffffffffffffffffffffffffffffffffffffffff1916149050919050565b6000808251149050919050565b600073ffffffffffffffffffffffffffffffffffffffff168473ffffffffffffffffffffffffffffffffffffffff1614156118dd576040517f08c379a00000000000000000000000000000000000000000000000000000000081526004016118d4906133fc565b60405180910390fd5b60006118e7611a03565b9050611908816000876118f988611efb565b61190288611efb565b87611a0b565b8260008086815260200190815260200160002060008773ffffffffffffffffffffffffffffffffffffffff1673ffffffffffffffffffffffffffffffffffffffff168152602001908152602001600020600082825461196791906135da565b925050819055508473ffffffffffffffffffffffffffffffffffffffff16600073ffffffffffffffffffffffffffffffffffffffff168273ffffffffffffffffffffffffffffffffffffffff167fc3d58168c5ae7397731d063d5bbf3d657854427343f4c083240f7aacaa2d0f6287876040516119e5929190613457565b60405180910390a46119fc81600087878787611fc1565b5050505050565b600033905090565b505050505050565b611a328473ffffffffffffffffffffffffffffffffffffffff16612191565b15611bdb578373ffffffffffffffffffffffffffffffffffffffff1663bc197c8187878686866040518663ffffffff1660e01b8152600401611a78959493929190613080565b602060405180830381600087803b158015611a9257600080fd5b505af1925050508015611ac357506040513d601f19601f82011682018060405250810190611ac09190612865565b60015b611b5257611acf61389a565b80611ada5750611b17565b806040517f08c379a0000000000000000000000000000000000000000000000000000000008152600401611b0e91906131b6565b60405180910390fd5b6040517f08c379a0000000000000000000000000000000000000000000000000000000008152600401611b499061325c565b60405180910390fd5b63bc197c8160e01b7bffffffffffffffffffffffffffffffffffffffffffffffffffffffff1916817bffffffffffffffffffffffffffffffffffffffffffffffffffffffff191614611bd9576040517f08c379a0000000000000000000000000000000000000000000000000000000008152600401611bd09061327c565b60405180910390fd5b505b505050505050565b600073ffffffffffffffffffffffffffffffffffffffff168473ffffffffffffffffffffffffffffffffffffffff161415611c53576040517f08c379a0000000000000000000000000000000000000000000000000000000008152600401611c4a906132fc565b60405180910390fd5b611c5b611a03565b73ffffffffffffffffffffffffffffffffffffffff168573ffffffffffffffffffffffffffffffffffffffff161480611ca15750611ca085611c9b611a03565b6116f7565b5b611ce0576040517f08c379a0000000000000000000000000000000000000000000000000000000008152600401611cd7906132dc565b60405180910390fd5b6000611cea611a03565b9050611d0a818787611cfb88611efb565b611d0488611efb565b87611a0b565b600080600086815260200190815260200160002060008873ffffffffffffffffffffffffffffffffffffffff1673ffffffffffffffffffffffffffffffffffffffff16815260200190815260200160002054905083811015611da1576040517f08c379a0000000000000000000000000000000000000000000000000000000008152600401611d989061333c565b60405180910390fd5b8381611dad9190613630565b60008087815260200190815260200160002060008973ffffffffffffffffffffffffffffffffffffffff1673ffffffffffffffffffffffffffffffffffffffff168152602001908152602001600020819055508360008087815260200190815260200160002060008873ffffffffffffffffffffffffffffffffffffffff1673ffffffffffffffffffffffffffffffffffffffff1681526020019081526020016000206000828254611e5f91906135da565b925050819055508573ffffffffffffffffffffffffffffffffffffffff168773ffffffffffffffffffffffffffffffffffffffff168373ffffffffffffffffffffffffffffffffffffffff167fc3d58168c5ae7397731d063d5bbf3d657854427343f4c083240f7aacaa2d0f628888604051611edc929190613457565b60405180910390a4611ef2828888888888611fc1565b50505050505050565b60606000600167ffffffffffffffff811115611f40577f4e487b7100000000000000000000000000000000000000000000000000000000600052604160045260246000fd5b604051908082528060200260200182016040528015611f6e5781602001602082028036833780820191505090505b5090508281600081518110611fac577f4e487b7100000000000000000000000000000000000000000000000000000000600052603260045260246000fd5b60200260200101818152505080915050919050565b611fe08473ffffffffffffffffffffffffffffffffffffffff16612191565b15612189578373ffffffffffffffffffffffffffffffffffffffff1663f23a6e6187878686866040518663ffffffff1660e01b81526004016120269594939291906130e8565b602060405180830381600087803b15801561204057600080fd5b505af192505050801561207157506040513d601f19601f8201168201806040525081019061206e9190612865565b60015b6121005761207d61389a565b8061208857506120c5565b806040517f08c379a00000000000000000000000000000000000000000000000000000000081526004016120bc91906131b6565b60405180910390fd5b6040517f08c379a00000000000000000000000000000000000000000000000000000000081526004016120f79061325c565b60405180910390fd5b63f23a6e6160e01b7bffffffffffffffffffffffffffffffffffffffffffffffffffffffff1916817bffffffffffffffffffffffffffffffffffffffffffffffffffffffff191614612187576040517f08c379a000000000000000000000000000000000000000000000000000000000815260040161217e9061327c565b60405180910390fd5b505b505050505050565b600080823b905060008111915050919050565b8280546121b090613774565b90600052602060002090601f0160209004810192826121d25760008555612219565b82601f106121eb57805160ff1916838001178555612219565b82800160010185558215612219579182015b828111156122185782518255916020019190600101906121fd565b5b509050612226919061222a565b5090565b5b8082111561224357600081600090555060010161222b565b5090565b600061225a612255846134b1565b613480565b9050808382526020820190508285602086028201111561227957600080fd5b60005b858110156122a9578161228f888261239b565b84526020840193506020830192505060018101905061227c565b5050509392505050565b60006122c66122c1846134dd565b613480565b905080838252602082019050828560208602820111156122e557600080fd5b60005b8581101561231557816122fb88826124ac565b8452602084019350602083019250506001810190506122e8565b5050509392505050565b600061233261232d84613509565b613480565b90508281526020810184848401111561234a57600080fd5b612355848285613732565b509392505050565b600061237061236b84613539565b613480565b90508281526020810184848401111561238857600080fd5b612393848285613732565b509392505050565b6000813590506123aa81613950565b92915050565b6000813590506123bf81613967565b92915050565b600082601f8301126123d657600080fd5b81356123e6848260208601612247565b91505092915050565b600082601f83011261240057600080fd5b81356124108482602086016122b3565b91505092915050565b6000813590506124288161397e565b92915050565b60008135905061243d81613995565b92915050565b60008151905061245281613995565b92915050565b600082601f83011261246957600080fd5b813561247984826020860161231f565b91505092915050565b600082601f83011261249357600080fd5b81356124a384826020860161235d565b91505092915050565b6000813590506124bb816139ac565b92915050565b600080604083850312156124d457600080fd5b60006124e2858286016123b0565b92505060206124f3858286016124ac565b9150509250929050565b6000806040838503121561251057600080fd5b600061251e8582860161239b565b925050602061252f8582860161239b565b9150509250929050565b600080600080600060a0868803121561255157600080fd5b600061255f8882890161239b565b95505060206125708882890161239b565b945050604086013567ffffffffffffffff81111561258d57600080fd5b612599888289016123ef565b935050606086013567ffffffffffffffff8111156125b657600080fd5b6125c2888289016123ef565b925050608086013567ffffffffffffffff8111156125df57600080fd5b6125eb88828901612458565b9150509295509295909350565b600080600080600060a0868803121561261057600080fd5b600061261e8882890161239b565b955050602061262f8882890161239b565b9450506040612640888289016124ac565b9350506060612651888289016124ac565b925050608086013567ffffffffffffffff81111561266e57600080fd5b61267a88828901612458565b9150509295509295909350565b6000806040838503121561269a57600080fd5b60006126a88582860161239b565b92505060206126b985828601612419565b9150509250929050565b60008060008060008060c087890312156126dc57600080fd5b60006126ea89828a0161239b565b965050602087013567ffffffffffffffff81111561270757600080fd5b61271389828a01612482565b955050604087013567ffffffffffffffff81111561273057600080fd5b61273c89828a01612482565b945050606061274d89828a016124ac565b935050608061275e89828a016124ac565b92505060a087013567ffffffffffffffff81111561277b57600080fd5b61278789828a01612482565b9150509295509295509295565b600080604083850312156127a757600080fd5b60006127b58582860161239b565b92505060206127c6858286016124ac565b9150509250929050565b600080604083850312156127e357600080fd5b600083013567ffffffffffffffff8111156127fd57600080fd5b612809858286016123c5565b925050602083013567ffffffffffffffff81111561282657600080fd5b612832858286016123ef565b9150509250929050565b60006020828403121561284e57600080fd5b600061285c8482850161242e565b91505092915050565b60006020828403121561287757600080fd5b600061288584828501612443565b91505092915050565b6000602082840312156128a057600080fd5b60006128ae848285016124ac565b91505092915050565b60006128c38383612fef565b60208301905092915050565b6128d8816136ea565b82525050565b6128e781613664565b82525050565b60006128f882613579565b61290281856135a7565b935061290d83613569565b8060005b8381101561293e57815161292588826128b7565b97506129308361359a565b925050600181019050612911565b5085935050505092915050565b61295481613688565b82525050565b600061296582613584565b61296f81856135b8565b935061297f818560208601613741565b6129888161387c565b840191505092915050565b61299c816136fc565b82525050565b60006129ad8261358f565b6129b781856135c9565b93506129c7818560208601613741565b6129d08161387c565b840191505092915050565b60006129e86034836135c9565b91507f455243313135353a207472616e7366657220746f206e6f6e204552433131353560008301527f526563656976657220696d706c656d656e7465720000000000000000000000006020830152604082019050919050565b6000612a4e6028836135c9565b91507f455243313135353a204552433131353552656365697665722072656a6563746560008301527f6420746f6b656e730000000000000000000000000000000000000000000000006020830152604082019050919050565b6000612ab4602b836135c9565b91507f455243313135353a2062616c616e636520717565727920666f7220746865207a60008301527f65726f20616464726573730000000000000000000000000000000000000000006020830152604082019050919050565b6000612b1a6025836135c9565b91507f4d79455243313135353a204e4654207769746820696420646f6573206e6f742060008301527f65786973740000000000000000000000000000000000000000000000000000006020830152604082019050919050565b6000612b806029836135c9565b91507f455243313135353a2063616c6c6572206973206e6f74206f776e6572206e6f7260008301527f20617070726f76656400000000000000000000000000000000000000000000006020830152604082019050919050565b6000612be66025836135c9565b91507f455243313135353a207472616e7366657220746f20746865207a65726f20616460008301527f64726573730000000000000000000000000000000000000000000000000000006020830152604082019050919050565b6000612c4c6032836135c9565b91507f455243313135353a207472616e736665722063616c6c6572206973206e6f742060008301527f6f776e6572206e6f7220617070726f76656400000000000000000000000000006020830152604082019050919050565b6000612cb2602a836135c9565b91507f455243313135353a20696e73756666696369656e742062616c616e636520666f60008301527f72207472616e73666572000000000000000000000000000000000000000000006020830152604082019050919050565b6000612d186024836135c9565b91507f4d79455243313135353a204e4654207769746820696420616c7265616479206560008301527f78697374000000000000000000000000000000000000000000000000000000006020830152604082019050919050565b6000612d7e6023836135c9565b91507f4d79455243313135353a204e4654204e616d652063616e6e6f7420626520656d60008301527f70747900000000000000000000000000000000000000000000000000000000006020830152604082019050919050565b6000612de46000836135b8565b9150600082019050919050565b6000612dfe6029836135c9565b91507f455243313135353a2073657474696e6720617070726f76616c2073746174757360008301527f20666f722073656c6600000000000000000000000000000000000000000000006020830152604082019050919050565b6000612e646029836135c9565b91507f455243313135353a206163636f756e747320616e6420696473206c656e67746860008301527f206d69736d6174636800000000000000000000000000000000000000000000006020830152604082019050919050565b6000612eca6028836135c9565b91507f455243313135353a2069647320616e6420616d6f756e7473206c656e6774682060008301527f6d69736d617463680000000000000000000000000000000000000000000000006020830152604082019050919050565b6000612f306021836135c9565b91507f455243313135353a206d696e7420746f20746865207a65726f2061646472657360008301527f73000000000000000000000000000000000000000000000000000000000000006020830152604082019050919050565b6000612f966034836135c9565b91507f4d79455243313135353a205472616e7366657272656420455448206973206c6560008301527f7373207468616e207072696365206f66204e46540000000000000000000000006020830152604082019050919050565b612ff8816136e0565b82525050565b613007816136e0565b82525050565b600060208201905061302260008301846128de565b92915050565b600060a08201905061303d60008301876128cf565b61304a60208301866128de565b6130576040830185612ffe565b6130646060830184612993565b818103608083015261307581612dd7565b905095945050505050565b600060a08201905061309560008301886128de565b6130a260208301876128de565b81810360408301526130b481866128ed565b905081810360608301526130c881856128ed565b905081810360808301526130dc818461295a565b90509695505050505050565b600060a0820190506130fd60008301886128de565b61310a60208301876128de565b6131176040830186612ffe565b6131246060830185612ffe565b8181036080830152613136818461295a565b90509695505050505050565b6000602082019050818103600083015261315c81846128ed565b905092915050565b6000604082019050818103600083015261317e81856128ed565b9050818103602083015261319281846128ed565b90509392505050565b60006020820190506131b0600083018461294b565b92915050565b600060208201905081810360008301526131d081846129a2565b905092915050565b600060e08201905081810360008301526131f2818a6129a2565b9050818103602083015261320681896129a2565b90506132156040830188612ffe565b6132226060830187612ffe565b818103608083015261323481866129a2565b905061324360a08301856128de565b61325060c08301846128de565b98975050505050505050565b60006020820190508181036000830152613275816129db565b9050919050565b6000602082019050818103600083015261329581612a41565b9050919050565b600060208201905081810360008301526132b581612aa7565b9050919050565b600060208201905081810360008301526132d581612b0d565b9050919050565b600060208201905081810360008301526132f581612b73565b9050919050565b6000602082019050818103600083015261331581612bd9565b9050919050565b6000602082019050818103600083015261333581612c3f565b9050919050565b6000602082019050818103600083015261335581612ca5565b9050919050565b6000602082019050818103600083015261337581612d0b565b9050919050565b6000602082019050818103600083015261339581612d71565b9050919050565b600060208201905081810360008301526133b581612df1565b9050919050565b600060208201905081810360008301526133d581612e57565b9050919050565b600060208201905081810360008301526133f581612ebd565b9050919050565b6000602082019050818103600083015261341581612f23565b9050919050565b6000602082019050818103600083015261343581612f89565b9050919050565b60006020820190506134516000830184612ffe565b92915050565b600060408201905061346c6000830185612ffe565b6134796020830184612ffe565b9392505050565b6000604051905081810181811067ffffffffffffffff821117156134a7576134a661384d565b5b8060405250919050565b600067ffffffffffffffff8211156134cc576134cb61384d565b5b602082029050602081019050919050565b600067ffffffffffffffff8211156134f8576134f761384d565b5b602082029050602081019050919050565b600067ffffffffffffffff8211156135245761352361384d565b5b601f19601f8301169050602081019050919050565b600067ffffffffffffffff8211156135545761355361384d565b5b601f19601f8301169050602081019050919050565b6000819050602082019050919050565b600081519050919050565b600081519050919050565b600081519050919050565b6000602082019050919050565b600082825260208201905092915050565b600082825260208201905092915050565b600082825260208201905092915050565b60006135e5826136e0565b91506135f0836136e0565b9250827fffffffffffffffffffffffffffffffffffffffffffffffffffffffffffffffff03821115613625576136246137ef565b5b828201905092915050565b600061363b826136e0565b9150613646836136e0565b925082821015613659576136586137ef565b5b828203905092915050565b600061366f826136c0565b9050919050565b6000613681826136c0565b9050919050565b60008115159050919050565b60007fffffffff0000000000000000000000000000000000000000000000000000000082169050919050565b600073ffffffffffffffffffffffffffffffffffffffff82169050919050565b6000819050919050565b60006136f58261370e565b9050919050565b6000613707826136e0565b9050919050565b600061371982613720565b9050919050565b600061372b826136c0565b9050919050565b82818337600083830152505050565b60005b8381101561375f578082015181840152602081019050613744565b8381111561376e576000848401525b50505050565b6000600282049050600182168061378c57607f821691505b602082108114156137a05761379f61381e565b5b50919050565b60006137b1826136e0565b91507fffffffffffffffffffffffffffffffffffffffffffffffffffffffffffffffff8214156137e4576137e36137ef565b5b600182019050919050565b7f4e487b7100000000000000000000000000000000000000000000000000000000600052601160045260246000fd5b7f4e487b7100000000000000000000000000000000000000000000000000000000600052602260045260246000fd5b7f4e487b7100000000000000000000000000000000000000000000000000000000600052604160045260246000fd5b6000601f19601f8301169050919050565b60008160e01c9050919050565b600060443d10156138aa5761394d565b60046000803e6138bb60005161388d565b6308c379a081146138cc575061394d565b60405160043d036004823e80513d602482011167ffffffffffffffff821117156138f85750505061394d565b808201805167ffffffffffffffff81111561391757505050505061394d565b8060208301013d85018111156139325750505050505061394d565b61393b8261387c565b60208401016040528296505050505050505b90565b61395981613664565b811461396457600080fd5b50565b61397081613676565b811461397b57600080fd5b50565b61398781613688565b811461399257600080fd5b50565b61399e81613694565b81146139a957600080fd5b50565b6139b5816136e0565b81146139c057600080fd5b5056fea2646970667358221220f0a43a98ba3d5f92d2f6272a34d22e1ae67af925949d91057cc9f74430c3dd9a64736f6c63430008000033",
  "immutableReferences": {},
  "source": "// SPDX-License-Identifier: MIT\n\npragma solidity ^0.8.0;\n\n\nimport \"./token/ERC1155/ERC1155.sol\";\n\n/**\n *\n * @dev Our own Implementation of the basic standard multi-token.\n *\n * Saurabh Santhosh\n */\ncontract MyERC1155 is ERC1155 {\n\n    uint256 private _totalTokens = 0;\n\n    // Mapping from token ID to metadata\n    mapping(uint256 => NFTDetails) private _metadata;\n\n    struct NFTDetails {\n        string name;\n        string category;\n        string uri;\n        uint256 amount;\n        uint256 price;\n        address creator;\n        address owner;\n    }\n\n    constructor (string memory uri_) ERC1155(uri_) {\n\n    }\n\n    /**\n     *\n     * The mint function of the NFT.\n     * Used to create new NFTs in the system\n     */\n    function mint(address account, string memory name, string memory category, uint256 amount, uint256 price, string memory uri) public virtual returns (uint256) {\n        require(!_isEmpty(name), \"MyERC1155: NFT Name cannot be empty\");\n        _totalTokens += 1;\n        require(_isEmpty(_metadata[_totalTokens].name), \"MyERC1155: NFT with id already exist\");\n        _metadata[_totalTokens] = NFTDetails(name, category, uri, amount, price, account, account);\n        _mint(account, _totalTokens, amount, \"\");\n        return _totalTokens;\n    }\n\n    function buy_nft(address payable owner, uint256 id) public payable {\n        NFTDetails memory details = _metadata[id];\n        require(!_isEmpty(details.name), \"MyERC1155: NFT with id does not exist\");\n        require(msg.value >= details.price, \"MyERC1155: Transferred ETH is less than price of NFT\");\n        this.safeTransferFrom(owner, msg.sender, id, 1, \"\");\n        owner.transfer(details.price);\n        if (msg.value > details.price) {\n            payable(msg.sender).transfer(msg.value - details.price);\n        }\n    }\n\n    function safeTransferFrom(\n        address from,\n        address to,\n        uint256 id,\n        uint256 amount,\n        bytes memory data\n    )\n    public\n    virtual\n    override\n    {\n      super.safeTransferFrom(from, to, id, amount, data);\n      _metadata[_totalTokens].owner = to;\n    }\n\n    /**\n     *\n     * Return the metadata of a given NFT\n     */\n    function metadataOf(uint256 id) public view virtual returns\n        (   string memory name,\n            string memory category,\n            uint256 amount,\n            uint256 price,\n            string memory uri,\n            address creator,\n            address owner) {\n        NFTDetails memory details = _metadata[id];\n        return (details.name, details.category, details.amount, details.price, details.uri, details.creator, details.owner);\n    }\n\n    function showSender() public view returns (address) {\n        return msg.sender;\n    }\n\n    function totalTokens() public view returns (uint256) {\n        return _totalTokens;\n    }\n\n    function _isEmpty(string memory str) private pure returns (bool) {\n        return bytes(str).length == 0;\n    }\n}\n",
  "sourcePath": "/Users/ssanthosh/code/block_chain/nft_test/contracts/MyERC1155.sol",
  "compiler": {
    "name": "solc",
    "version": "0.8.0+commit.c7dfd78e.Emscripten.clang"
  },
  "schemaVersion": "3.3.4",
  "updatedAt": "2021-03-27T13:20:38.118Z",
  "devdoc": {
    "details": "Our own Implementation of the basic standard multi-token. Saurabh Santhosh",
    "kind": "dev",
    "methods": {
      "balanceOf(address,uint256)": {
        "details": "See {IERC1155-balanceOf}. Requirements: - `account` cannot be the zero address."
      },
      "balanceOfBatch(address[],uint256[])": {
        "details": "See {IERC1155-balanceOfBatch}. Requirements: - `accounts` and `ids` must have the same length."
      },
      "isApprovedForAll(address,address)": {
        "details": "See {IERC1155-isApprovedForAll}."
      },
      "safeBatchTransferFrom(address,address,uint256[],uint256[],bytes)": {
        "details": "See {IERC1155-safeBatchTransferFrom}."
      },
      "safeTransferFrom(address,address,uint256,uint256,bytes)": {
        "details": "See {IERC1155-safeTransferFrom}."
      },
      "setApprovalForAll(address,bool)": {
        "details": "See {IERC1155-setApprovalForAll}."
      },
      "supportsInterface(bytes4)": {
        "details": "See {IERC165-supportsInterface}."
      },
      "uri(uint256)": {
        "details": "See {IERC1155MetadataURI-uri}. This implementation returns the same URI for *all* token types. It relies on the token type ID substitution mechanism https://eips.ethereum.org/EIPS/eip-1155#metadata[defined in the EIP]. Clients calling this function must replace the `\\{id\\}` substring with the actual token type ID."
      }
    },
    "version": 1
  },
  "userdoc": {
    "kind": "user",
    "methods": {
      "metadataOf(uint256)": {
        "notice": "Return the metadata of a given NFT"
      },
      "mint(address,string,string,uint256,uint256,string)": {
        "notice": "The mint function of the NFT. Used to create new NFTs in the system"
      }
    },
    "version": 1
  }
}